:020000022000DC
:1060000000000120A5660300E5660300E7660300C3
:10601000E9660300EB660300ED6603000000000084
:1060200000000000000000000000000021660300E6
:10603000F16603000000000041660300F5660300FE
:10604000F7660300F7660300813D030071BC0200A0
:10605000F7660300F7660300F7660300F7660300C0
:10606000F7660300F7660300F7660300F7660300B0
:10607000F7660300F7660300F7660300F7660300A0
:10608000F766030079630300F7660300F766030011
:10609000F7660300F7660300D1950200F766030078
:1060A000F7660300F7660300F7660300F766030070
:1060B000F7660300F7660300000000000000000020
:1060C000F7660300F7660300F7660300F766030050
:1060D000F7660300F7660300F766030000000000A0
:1060E00000000000000000000000000000000000B0
:1060F00000000000000000000000000000000000A0
:10610000000000000000000000000000000000008F
:10611000000000000000000000000000000000007F
:10612000000000000000000000000000000000006F
:10613000000000000000000000000000000000005F
:10614000000000000000000000000000000000004F
:10615000000000000000000000000000000000003F
:10616000000000000000000000000000000000002F
:10617000000000000000000000000000000000001F
:10618000000000000000000000000000000000000F
:1061900000000000000000000000000000000000FF
:1061A00000000000000000000000000000000000EF
:1061B00000000000000000000000000000000000DF
:1061C00000000000000000000000000000000000CF
:1061D00000000000000000000000000000000000BF
:1061E00000000000000000000000000000000000AF
:1061F000000000000000000000000000000000009F
:10620000F1EE103A43F08073E1EE103A704700BFB0
:1062100010B5054C237833B9044B13B10448AFF3E0
:1062200000800123237010BD303B002000000000DF
:1062300084CC030008B5034B1BB103490348AFF3FB
:10624000008008BD00000000343B002084CC030027
:10625000154B002B08BF134B9D46A3F5803A002138
:106260008B460F461348144A121A11F02DFF0F4B9C
:10627000002B00D098470E4B002B00D098470020F1
:10628000002104000D000D48002802D00C48AFF397
:10629000008011F0A7FE2000290010F057FA11F03D
:1062A0007BFE00BF0000080000000120000000008D
:1062B00000000000303B0020905F00200000000044
:1062C0000000000010B50D4C0D490E480DF05CF9B2
:1062D0002046002105F0FEF900221146204605F077
:1062E00063FA2046002105F065FA204606490DF0C4
:1062F000D7F82046BDE8104004F0FCBD003D00206A
:1063000024B203009C54002034B2030008B51449A1
:1063100014480DF039F9144B1B78012B05D0BDE85A
:1063200008401248002100F057BF1148002105F035
:10633000D1F9002211460E4805F036FA00210C482A
:1063400005F038FA0B490A480DF0AAF8084804F09D
:10635000D1FDBDE808400548002100F03DBF00BF69
:1063600040B203009C540020543E00204C410020C9
:10637000003D002054B203002DE9F04101EBD17142
:1063800000EBD074C1F3470865104E1082B008F1DD
:106390001007C5F13205C6F110066410EDB2FFB268
:1063A000F6B23234E4B22B462946324616480097FC
:1063B00004F0DCFE0096234632462946124804F0DB
:1063C000D5FE23463A4629460F48009704F0CEFEF4
:1063D00008F11103DBB23246009321462346102612
:1063E000094804F0C3FE29463A460748009632237E
:1063F00004F0BCFE044800963A462146322304F0DD
:10640000B5FE02B0BDE8F081003D00202DE9F04767
:106410008368072B86B015D801252F4640F2B27449
:106420003A493B480DF0B0F8172E05D8B8F13B0FAC
:1064300002D8B9F13B0F5FD9364B00221A7006B073
:10644000BDE8F087044606230422214603A80DF088
:10645000C3FD03A80DF018FE064603A80DF010FDBD
:1064600008230622214603A80DF0B6FD03A80DF06F
:106470000BFE804603A80DF003FDA368092BCBD9C2
:106480000A230822214603A80DF0A6FD03A80DF05B
:10649000FBFD814603A80DF0F3FCD4F808A0BAF187
:1064A000120FB9D10C230DEB030021460A220DF087
:1064B00093FD03A80DF0E8FD074603A80DF0E0FCEE
:1064C0000C220DEB020021460E230DF085FD03A8E2
:1064D0000DF0DAFD054603A80DF0D2FC2146534627
:1064E0000E2203A80DF078FD03A80DF0CDFD0446A3
:1064F00003A80DF0C5FC93E7CDE900543B464A469E
:106500004146304606F020FC96E700BF68B2030023
:106510009C540020643E00202DE9F84F2DED028BA5
:106520004C4D82468B4605240221284605F0D2F8C0
:1065300021466000FFF720FF0234284604F0DAFC11
:106540000F2CF1D1434D0221284605F0C3F8214616
:106550006000FFF711FF013C284604F0CBFC092C3A
:10656000F1D14FF4FA700DF0A1FDDFF8F0909FED3E
:106570003A8A384C4FF00008002507E004F0BAFCD6
:1065800001350A200DF092FD182D5ED007EE905ACD
:10659000F8EEE77AB7EE007AA7EEC87A17EE100A9F
:1065A00011F054F806460F4602460B4611F0A6F8C5
:1065B00032463B4611F0A2F80B4602464946404699
:1065C00010F0E4FE11F0CCFA07EE100AF3EE087AB0
:1065D00067EE277A0221FDEEE77A204617EE906AF1
:1065E00005F078F80A211420FFF7C6FE00212046A6
:1065F00005F0E0F80121204605F0DAF81222964273
:10660000D8BFF2B220464FF04601C4BF2046462113
:1066100005F0CAF8A6F10F07514620460CF01CFF02
:10662000002FFAB24FF046012046A7DB05F0BCF878
:10663000594620460CF010FF204604F05BFC013563
:106640000A200DF033FD182DA0D1BDEC028BBDE862
:10665000F88F00BF003D0020ABAA2A3D0000F03FAC
:1066600070B502218EB004462F4805F033F820465D
:106670000A210DF08FFC451C49D002AD03460022D3
:10668000284621460DF0A8FC0A2120460DF082FC88
:10669000411C36D0421C0A21204601920DF08AFC92
:1066A000421C0346019A29D005AE214630460DF022
:1066B00093FC294608A80DF0C9FB31460BA80DF044
:1066C000C5FB0BA908A8FFF727FF0BA80DF0D8FB07
:1066D00008A80DF0D5FB41F288300DF0E7FC02214F
:1066E000114804F0F7FF104804F004FC30460DF0A8
:1066F000C7FB28460DF0C4FB0EB070BDA3689342E3
:10670000D2D805AE094930460DF086FBD1E7A36823
:1067100002AD28461BB905490DF07EFBB4E7002207
:1067200021460DF059FCAFE7003D0020F8B2030010
:1067300070B5234D064605240221284604F0CAFF01
:1067400021466000FFF718FE0234284604F0D2FB11
:106750000F2CF1D11A4D0221284604F0BBFF21462F
:106760006000FFF709FE013C284604F0C3FB092C3A
:10677000F1D14FF496700DF099FC1148022104F00C
:10678000A9FF0A211420FFF7F7FD01210C4805F0AD
:1067900011F80B48012105F00BF8094808224621A1
:1067A00005F002F831460A2205480CF081FF044842
:1067B00004F0A0FBBDE8704041F288300DF076BCDB
:1067C000003D002030B5224C89B00221204604F063
:1067D00081FF06F071FA039006F086FA029006F047
:1067E0009BFADDE9023200901A4905A812F00AFB73
:1067F00008222046232104F0D7FF2046022102254B
:1068000004F0D8FF05A920460CF04AFE20462B468E
:1068100000950A223D2104F0B7FC2B462046009546
:1068200014223D2104F0B0FC2B46204600950A229C
:106830005E2104F0A9FC2B46204614225E2100951F
:1068400004F0A2FC204604F055FB09B030BD00BFA7
:10685000003D002078B2030010B5204C82B02046E5
:10686000022104F037FF18230022CDE9003320462F
:1068700004231B4904F0ACFE2046012104F09AFFDA
:106880002046012104F094FF0A2220461A2104F038
:106890008BFF144920460CF003FE2046002104F033
:1068A00089FF042220461A2104F07EFF0E4920466B
:1068B0000CF0F6FD2046012104F07CFF2046062264
:1068C000742104F071FF094920460CF0E9FD2046CF
:1068D00002B0BDE8104004F00DBB00BF003D002039
:1068E00004360020B8B20300BCB20300C0B20300FB
:1068F000F0B583B01B4B1C4D01930D231B4C009333
:1069000010220C230F211A481A4F1B4E04F05CF979
:106910001A4928460DF080FA22461949284611F0F6
:10692000FFFA1848184D05F023FA38464FF48071E5
:1069300003F068FC22461549384611F0F1FA30465A
:1069400003F00AF822461249304611F0E9FA2846C7
:1069500002F068FF0F492246284603B0BDE8F04028
:1069600011F0DEBAA0420020583E00200036002080
:10697000003D00200C3C0020C43B0020F8B2030086
:10698000813E0300683E0020543B002099A2020093
:106990009D6F0200756F020000B5424885B004F09B
:1069A00027FF414805F052F840484FF4E1310CF020
:1069B000E1FF3F493D480CF0E7FD3E4A3A493E4879
:1069C000572305F005FB20B93C4938480CF0DCFDA5
:1069D000FEE74FF4C87140F29B124FF480538DE8EC
:1069E0000E003548032304221F2105F013FB324813
:1069F0000A2105F0BFF93048002105F0D1F9202225
:106A00002F48A02104F01CFA2D48402104F060FA20
:106A10002B48002104F05EFE00221146284804F0B5
:106A2000C3FE0021264804F0C5FE264924480CF088
:106A300037FD234804F05EFA00220121224802F0CB
:106A4000E3FB2249204802F051FD21492148072259
:106A500002F07EFF07221D491E4802F075FF1E4905
:106A6000194801F0EDFD1D49174801F0EBFD1C48E8
:106A700003F056FC1B4802F0FBFE164802F0A2FF92
:106A80001749194800F0DEFA1649174800F0DAFAFB
:106A9000164800F0EDFA1448002105B05DF804EB4B
:106AA00000F09ABBA0420020BC4200209C54002071
:106AB000C8B20300A0860100683E0020D0B20300E7
:106AC000003D002054B20300C43E0020FCB203008D
:106AD00004B30300C43B0020C56202000D63020042
:106AE0000C3C0020543B00204C41002090410020F1
:106AF0002DE9F04F2DED048BC2488DB002F0D2FF8E
:106B000030BBC14C2378012B14D0022B7FD0032B38
:106B100073D0042B00F04A81052B00F09B81062BDB
:106B200000F0C081072B00F0C0810DB0BDEC048BDC
:106B3000BDE8F08FB54C2378002BF6D0B448FFF7B2
:106B40008FFD002323700DB0BDEC048BBDE8F08FEA
:106B5000AF4CB049AD4E09A80CF010FE09A9204673
:106B60000DF096F909A80DF08BF920460DF062FAA8
:106B70000123A949A94833700CF092FC2146A7488B
:106B80000CF0BCFCA64909A80DF046F909A920465D
:106B90000DF0ECF9054609A80DF072F9CDB100220F
:106BA000A36832702146042209A80DF015FA09A83D
:106BB0000DF06AFA031E944C07DB9A4823700221F9
:106BC00004F088FD974804F095F909A80DF058F9EC
:106BD00098E7954909A80DF01FF909A920460DF07D
:106BE000C5F9054609A80DF04BF9002D00F0E2802B
:106BF0002046FFF70BFC844C84E7FFF7E3FD0A20F7
:106C00000DF054FA0DB0BDEC048BBDE8F08F874851
:106C100005F0C0F9069005F0E3FD002840F053812F
:106C2000834B0793834BEC22191D184611F032FA5F
:106C30000568069AC0F8EC20034600F1EC072946E7
:106C400053F8042F954228BF1546914238BF11468C
:106C5000BB42F5D1A1EB0509B9F1010F764C774E96
:106C600038BF4FF001094FF01F0854F8040F401BC4
:106C7000A0FB08014A46002310F0C2FFBC4206F800
:106C8000010FF2D16748DFF8C4819FED6D9ADFF8FC
:106C9000C0B10221002404F01DFD01254FF0000ABF
:106CA000059405E00134A02C4FF0000553D0059663
:106CB00007EE904AB8EEE78A28EE098AFDEEC87A18
:106CC00017EE903AF8EEE77A08EB03023A2B38EE2B
:106CD000678A18F80390D8BF537818EE100AD4BF0B
:106CE00008EE903A08EE909A10F0B0FC02460B467F
:106CF0005046594610F04AFB064648460F4610F0EB
:106D000093FCF8EEE88A02460B463046394610F00E
:106D1000F5FC68EE887A064617EE900A0F4610F0EA
:106D200095FC02460B463046394610F031FB10F018
:106D3000F7FEC0F11F00C6B2002DB3D1E3B2591E59
:106D4000059A38480096C9B2013404F00FFAA02C15
:106D50004FF00005ABD1079B32481B68632B4FF007
:106D6000100300932A46D4BF382340232946CDE997
:106D7000015504F043FA002211462A4804F014FD9C
:106D80000121284804F016FD2E4926480CF088FB06
:106D9000069A4CF250339A4200F28E80214804F059
:106DA000A9F80DB0BDEC048BBDE8F08F0320FFF710
:106DB000BFFCBAE6244909A80DF02EF809A920461F
:106DC0000DF0D4F8054609A80DF05AF8002D3FF44F
:106DD00098AE21464FF0FF33032209A80DF0FCF8CE
:106DE00009A80DF051F9044609A80DF049F8A31EB1
:106DF0007C2B3FF686AEE1B20A48034C04F068F8FB
:106E000080E600BF0C3C0020543E0020643E002081
:106E1000583E0020243C00200CB303009C5400206A
:106E200018B30300003D002020B30300683E00209B
:106E30004C3B0020603D00205C3D0020233D0020B5
:106E4000C7FCBD3E2CB3030028B30300243D002043
:106E50000000F03F3E4909A80CF0DEFF3D4802214A
:106E600004F038FC00213B4804F0A4FC394801211F
:106E700004F09EFC0A223748002104F095FC09A981
:106E800034480CF0E9FA334804F034F809A80CF05F
:106E9000F7FF4FF47A700DF009F90DB0BDEC048BDB
:106EA000BDE8F08F2C4909A8D6E7FFF7D5FC4FF4D1
:106EB0007A700DF0FBF838E6079B264819680A221D
:106EC0000CF0F6FB6AE7254D0DF0E4F82C68041B86
:106ED0000DF0E0F82860204610F0A6FB0B460246B5
:106EE00019A1D1E9000110F033FD10F039FE9FED3A
:106EF0001C7A1C4B07EE900AF4EEC77AF1EE10FAFA
:106F000018607FF58DAEB3EE047AF4EEC77AF1EE39
:106F100010FA7FF785AE1448144A0478144D07958B
:106F2000FCEEE77A611C17EE903A1355147853780B
:106F300023449478D278234413449B1001F0030235
:106F400002702B606EE600BF00000000004CED40B8
:106F500088B20300003D0020A4B20300503E002090
:106F600000007F43503B0020A43E0020A83E0020AC
:106F70004C3B002010B5074B044640F8183B00F08E
:106F80008DFA2046044B40F8083B01F089FE20466C
:106F900010BD00BF54B4030070B3030010B5044B20
:106FA000044640F8083B01F07BFE204610BD00BFC0
:106FB00070B3030072DF704773DF704777DF70478D
:106FC00038B5054608460C4601F098FE102803D057
:106FD00080280ED0012038BDEB7FA2881B2B0EDC51
:106FE000E9180320E85448704A80EB7F0433EB77BC
:106FF000F0E7A368002BEDD0E97F0D2901DD00202B
:1070000038BD6A18112068540721517058681C68EF
:107010009968DB68C2F80E30C2F80600C2F8024078
:10702000C2F80A10EB7F1233EB77012038BD00BFA6
:1070300010B500210446C1771F2211F045F8204603
:1070400010BD00BF30B5D1E9042485B0CD68074B31
:1070500000936946CDE902240195FFF7B1FF04468C
:10706000684601F01DFE204605B030BD88B3030020
:10707000F0B589B0064620221348694602F04AFA64
:10708000F37FC2181D2A0CDDC3F11D04E4B2E2181F
:107090001D2A4FF00005D8BF082705DD284609B096
:1070A000F0BD044601250927F218601CF05469461A
:1070B0005770901C224610F0DFFFF27F023214441A
:1070C0002846F47709B0F0BDC43E002010B51F2259
:1070D0000446002110F0F8FF064B0749074A2362D7
:1070E0000023E377C4E90C12C4E90E33E36223649E
:1070F000204610BDFF0101002000F40020001E000A
:1071000080F82210704700BFF0B502EB820389B00F
:10711000154603EB830390F821209B0004460020D2
:10712000CDE90410ADF81430931E0290CDE90600AD
:107130000E4603908DF80820092B09D8DFE803F0EC
:107140000505080808050805080504F1240303934C
:107150001D4B1A68D20709D41C491D4AC87FE77F16
:10716000908101201460916097801860184902AAEC
:1071700004F12000FFF71EFF10B1002009B0F0BDA0
:1071800094F820101348019102F0D8F901990246B1
:107190000120FFF713FF0028EFD194F82000012110
:1071A000FFF70AFF0028E8D10A4802F021FA628FAF
:1071B000A686AA424FF0010094BF921A521B628722
:1071C00084F8230009B0F0BDAC3E002090410020BF
:1071D000B03E0020C43E0020F0B5002361F30F0351
:1071E000044661F31F4389B08363FA212F4802F0FC
:1071F000A9F9E58E94F82110268E049605EB8503F7
:1072000003EB830300229B000592ADF814308B1E24
:107210000292CDE9062203928DF80810092B09D8B5
:10722000DFE803F00505080808050805080504F16E
:10723000240303931E4B1A68D20709D41D491E4A22
:10724000C87FE77F9081012014609160978018606B
:10725000194902AA04F12000FFF7ACFE10B100208A
:1072600009B0F0BD94F820101048019102F066F9C1
:10727000019902460120FFF7A1FE0028EFD194F802
:1072800020000121FFF798FE0028E8D1074802F00E
:10729000AFF9638FA6869D424FF0010094BF5B1B40
:1072A000DB1A638784F8230009B0F0BDC43E0020D8
:1072B000AC3E002090410020B03E002030B50B884D
:1072C0008D88112B85B0044605D0262B33D0102B8A
:1072D00025D005B030BDC36AEB40DB07F9D52E4899
:1072E00001F08EF90028F4D1E36A94F8231001220A
:1072F00002FA05F523EA0503E3620029E9D194F8CF
:107300002230002BE5D0238F23486387FA2102F037
:1073100019F9E28E218E2046FFF7F6FED9E7CB7BE6
:10732000012BD6D1C26A03FA05F515430023C562C5
:1073300080F82330CDE70B7A012BCAD1002380F8E7
:1073400023304FF4FA71144802F0FCF8238F5BB13C
:10735000658F95B1236C0BB19847658F618E2A4676
:107360002046FFF7D1FEB4E7236C03B19847618E46
:1073700000222046FFF7C8FEABE7074802F04CF9B1
:10738000E26B002AA5D0009503AB29462846039559
:107390000FF0CEFC9DE700BFC43E002075DF7047B4
:1073A00010B44FF010144FF448010022C0E900411E
:1073B000C0E902225DF8044B704700BF014800F0AD
:1073C00021BF00BF04420020F8B500250D4F2E4616
:1073D00001E0142D14D0A9B2384602F0F1F80135BD
:1073E00004460028F5D000F0B1FD0028F1D0204679
:1073F00000F0B6FD022804BF0136F6B2142DEAD122
:107400003046F8BDC43E002070B58E881B480C463F
:1074100094B0314602F0D4F823881A2B05D01F2BE4
:107420001CD0102B0FD014B070BD054600F090FD9D
:107430000028F8D0284600F08DFD0028F3D128461A
:1074400000F0F8FDEFE7694600F0DCFD0028EAD027
:107450006A4631460A4801F039FBE4E754F8080F60
:1074600061686B4603C33046BDF80030ADF80230AA
:107470006946FFF793FF14B070BD00BFC43E002003
:10748000E43E0020AADF7047ABDF7047ACDF7047F7
:10749000ADDF7047AEDF7047B0DF704710B5044B0B
:1074A000044640F8043B01F0FBFB204610BD00BF42
:1074B00040B3030010B5054B044640F8043B01F00F
:1074C000EFFB20460FF07CF9204610BD40B30300CF
:1074D00070B57B4B04461B68836196B0043001F0A5
:1074E0001DFC94F82E30A06913F0320208BF84F816
:1074F0002F2013F00C0308BF84F830300DF1010287
:10750000694601F0C3FB94F82F209DF80100150790
:107510000DD09DF8001002F00F0301F00F059D4201
:107520004FEA12126DD243EA021284F82F2094F827
:10753000303019070BD003F00F0100F00F058D421A
:107540004FEA131369D241EA031384F8303094F8F8
:107550002E1011F0300340F096800FAD0F93C5E967
:107560000133C5E903338DF83C10AB610021ADF860
:1075700009109DF80A10206A1493012363F3420155
:107580008DF808208DF80A1008B1037873BB94F8C1
:10759000263013B104F12603129394F8312000230E
:1075A000D2070893079358BFE38AADF81C3004F163
:1075B000080004F12F01CDE9050154BF1846E08A07
:1075C000ADF82000294604F13203E569099505AAC2
:1075D0000020FFF757FF054628B994F8253043BB34
:1075E000237D002B64D0284616B070BD109011F09A
:1075F0005EFC02AB80B2ADF84400ADF846001393D8
:10760000C5E74FEA111101D191428CD30A462B46AE
:1076100043EA021284F82F2089E74FEA101001D1C3
:10762000984290D30346294641EA031384F8303048
:107630008DE7ADF80D009DF80E2094F82F600C90AA
:10764000012363F3420242F608118DF80E208DF8F3
:10765000123004AA0223ADF8101003A90D90ADF862
:107660003030ADF834300A9204F124030B910DF15F
:1076700002020AA98DF80C600E93FFF705FF00289F
:10768000AED00546AFE70F4B8DF805200FAD1B7848
:107690008DF80430022000230F938DF80600C5E911
:1076A0000133C5E90333AB618DF83C1001AB5DE7F5
:1076B0002146054800F066FF284616B070BD00BFA1
:1076C000C03E002034B303004C3F00202DE9F041C0
:1076D0000B888E88502B8AB00C46054609D0512B5A
:1076E00004D18B79012B19D0022B26D00AB0BDE82A
:1076F000F081CB88428E9A4235D0EA8E9A42F5D1FB
:107700006B6D002BF2D095F84420648A920700F14B
:107710008A802246294630469847E7E7836C002B4B
:10772000E4D090F84420520701F108076CD43A469F
:10773000294630469847A379D6E7A27B042A46D04B
:10774000062A20D0012AD1D1EB6C002BCED095F89F
:107750004420170704F1080400F1A58022462946B9
:1077600030469847C2E7076D002FC6D090F84430E6
:10777000D90768D404F11208238A424629463046C4
:10778000B847E388B9E7EA6B002AAFD0002202A924
:107790003046CDE90222CDE90422ADF80C208DF867
:1077A0000830FFF779FE2C6D54B195F84430D807B6
:1077B00000F19280B5F84230EA6B30462946A04786
:1077C000E86B0CF09BFC0023C5E90F338EE7E86BF8
:1077D000002878D0B5F84010278A628A07EB020C9F
:1077E00000234FF0020E8C45CDE90633CDE9083376
:1077F0008DF818E039DD40F20913ADF81C3006A908
:107800003046FFF749FE71E703211A46009106ABA7
:1078100008213846CDE9066508970FF089FA002857
:1078200089D1AB6C83E7032000211A46009006AB98
:107830000846CDE9066508940FF07AFA00287FF42F
:1078400055AF6B6D65E7218A069604F11208042393
:1078500000933A46404606ABCDE9088107950FF004
:1078600067FA00288DD12F6D86E79DF81EC0ADF810
:107870001C3004F114014CF001033844ADF822200F
:107880008DF81E300991ADF8207010F0F5FB238AB9
:10789000618AB5F842200B449BB2934238BF13462D
:1078A000A5F84230ABE703211A46009106AB0E2142
:1078B0002046CDE9066508940FF03AFA00287FF4D7
:1078C00015AFEB6C4AE74FF480600CF0FDFB4FF412
:1078D0008061C5E90F017FE7E86BB5F842100696B5
:1078E00004230093224606ABCDE9075009910FF01F
:1078F0001FFA00287FF464AF2C6D5BE72DE9F04F91
:107900000F464FF6FF718F4289B0064615461C465A
:1079100026D0F18A96F82E308C4228BF0C46DB0622
:1079200015D40DF1100B8C4228BF0C464FF0000807
:10793000718EADF810405A464FF6FF700595ADF8C0
:107940001280FFF7A3FD404609B0BDE8F08F39482B
:10795000394601F01DFE08B1F18E31B9F18AE0E738
:10796000344801F021FE0746D3E7002002230DF141
:10797000100BADF81200ADF810305A460DF10E03A1
:1079800038460593FFF784FD43F2014398424FD0F8
:1079900000284AD19DF80E8008F00108B8F1000FC8
:1079A00046D02448394601F00BFE8246A0B300F0D1
:1079B000D9FA033883B2002CC5D0CDF804804FF03B
:1079C0000009984605E0BDF80E30E41AA4B21D4443
:1079D00044B3504600F0E4FAA045034642465946F7
:1079E00028BF22463846BBB1ADF80E204FF0010249
:1079F000738E8DF812200DF10E02CDE90625CDF81B
:107A000013908DF81790ADF81030FFF743FD002864
:107A1000D9D0504600F0CEFA4FF00008404609B0E9
:107A2000BDE8F08FDDF804808DE700F00108B5E7D0
:107A3000F18A78E7C43E002010B5154B044640F8A3
:107A4000043B01F035F9134A0023127884F84430DE
:107A500014200321A384C4F82630C4F82A3084F803
:107A60002E30E082C4E90F33C4E91233C4E9143381
:107A700084F831102375A3612362E3616386636335
:107A8000238784F82F2084F83020204610BD00BFC3
:107A900040B3030034B3030070B44E68164A8660E6
:107AA0000260D1E90262154B154D1C7845600261F8
:107AB000142500220321C0E90F22C0E91222C0E9E7
:107AC0001422C660C58280F8311080F84420027507
:107AD000826102628284C0F82620C0F82A2080F8E1
:107AE0002E20C26142864263028780F82F4080F8D0
:107AF000304070BC704700BF40B3030034B3030094
:107B000088B3030010B4D1E90142CB680361C0E936
:107B100002425DF8044B704780697047012303758A
:107B2000704700BF80F82E10704700BFC1827047B9
:107B300041B190F83130C182002262F3000380F835
:107B40003130704790F83130012262F3000380F841
:107B50003130704780F82F1080F83020704700BF18
:107B600090F84430016562F3000380F844307047B8
:107B700010B490F8443090F83140C164003918BF17
:107B8000012161F3041462F3C30380F8314080F8EB
:107B900044305DF8044B70470162704751F8322F52
:107BA000026049684160704730B5C48A83B094422E
:107BB00023460D4628BF1346418E019500246A4690
:107BC0004FF6FF70ADF80030ADF80240FFF75EFCF5
:107BD00018B9BDF8000003B030BD204603B030BD79
:107BE00030B5C38A85B00A46022B28BF0223418ED6
:107BF000ADF8062000240DF1060502AA4FF6FF702D
:107C0000ADF80830ADF80A400395FFF73FFC18B90E
:107C1000BDF8080005B030BD204605B030BD00BF3E
:107C200090F82E3013F0100301D11846704730B58C
:107C3000044685B011480D4601F0AAFC10B1E18E52
:107C400011B9084605B030BD0DF1060328460024E1
:107C5000022502AA0393ADF80A40ADF80850FFF7D9
:107C600017FC43F20143984206D008B99DF806007C
:107C700000F0010005B030BD2046E3E7C43E00201F
:107C800010B490F82E4014F0100403D05DF8044BAB
:107C9000FFF734BE20465DF8044B7047A1DF704704
:107CA000A3DF7047A4DF704700238383704700BFC2
:107CB000006A00F0E3B800BF808B70472DE9F04107
:107CC0000B88CE88382B86B00C46054606D0392B5B
:107CD00066D0362B43D006B0BDE8F08100F1240712
:107CE000002E36D10A8A3846314602F0DDFB94F880
:107CF0000C80B8F1010F2CD0B8F1040FEBD1286A39
:107D000000F0BCF801465C4801F05AFC00F02AF98A
:107D10002A8E053883B2934228BF1346002B00F009
:107D20009A80218AE289286AAC8B8DF80D600A441A
:107D3000E96A05918DF80C80ADF81230ADF810208D
:107D4000ADF80E4000F09AF803A9FFF7A9FF00284C
:107D5000C1D0384602F0C0FB06B0BDE8F081006A31
:107D600000F08CF80146444801F02AFC00F0FAF8D3
:107D700007466EBB05F12406E289304604F1100186
:107D800002F092FB2B8E2BB1F81EE38980B20138F2
:107D9000834255DA304602F09FFB06B0BDE8F08121
:107DA0000B7B012B1AD0022B95D1836B002B92D029
:107DB00090F83C208F8892071FD401F11006E289C9
:107DC00031462846984761893846FFF76BFF82E7BE
:107DD00005F12407384602F07FFBBDE7436B002B1B
:107DE0003FF479AF90F83C20D10717D404F1100686
:107DF000E2893146284698476DE7C989039004F126
:107E0000100603201A46009003AB3046CDE904610A
:107E10000EF08EFF0028D6D1AB6BD0E7E18903903E
:107E200004F1100603201A46009003AB3046CDE95A
:107E300004610EF07DFF00287FF44DAF6B6BD7E738
:107E4000286A00F01BF86A8EA98B92B2FFF726FF12
:107E500000289FD13FE7AA8B286AADF80E2040F298
:107E60000511ADF80C10CDE9043300F007F803A9B3
:107E7000FFF716FF6DE700BFC43E00208088704703
:107E800076DF70478FDF704790DF7047B1DF704754
:107E9000B5DF704710B5074B03600446806A0CF0ED
:107EA000D9FFE06A0CF0D6FF206B08B10CF0D2FFCE
:107EB000204610BD58B3030010B5094B03600446BB
:107EC000806A0CF0C7FFE06A0CF0C4FF206B08B1B9
:107ED0000CF0C0FF20460EF073FC204610BD00BF22
:107EE00058B3030070B504460D4692E80300A58020
:107EF0000E0CA061A183144DA67717201B21568973
:107F00002560E0809589D089E181D1796581012260
:107F100022752274A08161741846194626819DF845
:107F200010500CF0B5F92946A06228460CF0B0F9C3
:107F30004FF4885100234FF6FF72E182E0626282C3
:107F400023636375204670BD58B30300007D7047FE
:107F5000407D7047C07D113818BF0120704700BFB9
:107F6000407C7047C0887047008970474B7D10B4D3
:107F70004BB11F310C688A888B79046082805DF870
:107F8000044B837170471831F4E700BF08B5132123
:107F90008088FFF775FFB0FA80F0400908BD00BF88
:107FA00008B56621806A0CF0CDFD003818BF0120AD
:107FB00008BD00BF08B500231A461946806A0CF0B8
:107FC00099F9003818BF012008BD00BF818800F171
:107FD0001F02407C02F0C6BA38B50A4605460C4678
:107FE0008188407C02F0AAFA2146012051F8483FDE
:107FF000C5F81F308B888A7985F82520A5F82330AD
:10800000687538BD38B50A4604460D4600F11801BA
:10801000407C02F0DDFA607550B1294651F8483FC6
:10802000C4F81F308B888A7984F82520A4F823307F
:1080300038BD00BF10B5447D24B100F11F01407C64
:1080400002F0A4FA204610BD70B50B88113B82B037
:108050000C460546462B2BD8DFE803F0383B2A2A8E
:108060002A2A2A2A2A422A2A2A2A2A2A50585E6496
:108070002A2A2A2A2A2A2A2A2A2A2A2A2A2A2A2A60
:108080002A2A2A2A2A672A942A2A2A2A2A2A2A2AA9
:108090002A2A2A2A2A2A2A2A2A2A2A2A2A246A2A06
:1080A000752C84000023A8881A461946FFF7EEFEB7
:1080B00002B070BD8B79002BFAD1006BAB75002834
:1080C000F6D01A4619460CF015F9F1E700230375AE
:1080D000EEE74B8903818B894381CB898381E7E775
:1080E0000B7AC375112BE3D0818800F11F02407C0D
:1080F00002F026FB03460028DAD1D4E7002301A9C9
:108100008088ADF80430FFF7BDFED1E70B7A002B75
:10811000CED14B7A0374CBE7002211468088FFF75B
:10812000B3FEC5E70B89C381C2E74B89C380BFE7B4
:10813000006B0123AB750028BAD000231A461946FC
:108140000CF0D8F8B4E7417C164801F031FAE38826
:108150000146994228BF194689B2A888E980FFF7ED
:1081600097FEA5E78B79002BA2D0002600231A46A4
:108170001946A86A0CF0BEF80136A279F3B29A4209
:10818000F4D895E78B7A002B92D0002600231A466C
:108190001946E86A0CF0AEF80136A27AF3B29A42B8
:1081A000F4D885E7C43E002070B58AB086880B46B7
:1081B00006A84FF42851144605934FF6FF7500F0BA
:1081C00081FD0120CDE90105059B0094314606AAF9
:1081D000044800F073F8044606A800F061FD20464C
:1081E0000AB070BD4C3F002010B50446043002F0C8
:1081F000F7F8034B236000232375204610BD00BF12
:108200000100FFFF017D01B1704710B50446043045
:1082100002F0F0F80123237510BD00BF007D704708
:108220000B88322B10B504D0332B1ED0302B0FD03F
:1082300010BD4A8932B100230133DBB29342FBDB2C
:10824000CB881BB3041D2046BDE8104002F044B9A2
:10825000CB88041D002BF6D14B89002BF3D00A31BB
:1082600020460A2202F020F9EDE7CB88002BE9D165
:108270004A89002AE6D002EB42025200041D023273
:1082800092B20A31204602F00FF9DCE702EB8202DB
:10829000F3E700BFA0DF704710B5044600F5F870A3
:1082A00002F09EF82046F82200210FF00DFFF82280
:1082B000A01800210FF008FF204610BD2DE9F0475F
:1082C00082B00546BDF82C60BDF830402048ADF8BE
:1082D0000460BDF828A0ADF80640904699460F46C8
:1082E00001F06EF905F5F875064603E0FFF73CFE70
:1082F0000BF0DCFE284602F0D5F804463046002C90
:10830000F4D10121284602F075F852464946284624
:1083100002F08CF808F10401384601AAFFF7BAFF11
:1083200030B1284602F070F8204602B0BDE8F08770
:108330004FF4FA71284602F07FF820EAE0742846EC
:1083400002F062F8A4B2204602B0BDE8F08700BF98
:10835000C43E00202DE9F04F8F880D8885B08846F7
:1083600004463946864801F02BF9A5F11003012B8C
:10837000814640F2908094F854203AB30026334668
:108380001633502D54F823A069D0512D1AD198F8E6
:108390000630B8F808B0022B53D0BBF1000F11D053
:1083A00051466846FFF7FAFBBDF800305B4559D0EF
:1083B000514602A8FFF7F2FBBDF80C305B4551D0E7
:1083C00094F854200136F3B29342D9D394F84C3147
:1083D000002B00F0D18004F5A679002604E094F883
:1083E0004C310136B34220DD59F8040FFFF760FC31
:1083F000B842F4D1382D03D0392D01D0362DEED12D
:10840000B8F80AA0BAF1000FE9D0D9F800B0584680
:10841000FFF752FC5045E2D158464146FFF74EFC6B
:1084200094F84C310136B342DEDC112D55D0352D98
:1084300004D1B8F80A30002B40F08F8005B0BDE8B9
:10844000F08F98F80E30062BA7D1DAF8003050469E
:10845000DB68414698474846FFF77CFDB0E7B8F82F
:1084600006B09AE7DAF800305046DB684146984794
:108470004846FFF76FFD0028A2D0502DA0D15146ED
:1084800002A8FFF78BFBBDF80C305B4598D148463E
:10849000FFF79CFD94E72378002B3FF46CAF002698
:1084A000112D33460CD004EB83033946586803681A
:1084B0005B68984701362278F3B29A42F3D85AE7BC
:1084C00004EB83033946586803681B6898470136F4
:1084D0002278F3B29A42F3D84DE7D3B1002633465F
:1084E00005E094F84C210136F3B29A4211D904EB1D
:1084F0008305D5F85001FFF7DBFBB842F1D1D5F881
:108500005001FFF7D1FB013694F84C21F3B29A42A7
:10851000EDD894F8F820002A90D000252B4604EBE3
:108520008303D3F8FC008388BB420AD00135EBB249
:10853000934283D204EB8303D3F8FC008388BB42CD
:10854000F4D103681B689847013594F8F820EBB222
:108550009342E4D305B0BDE8F08F04F5F874B8F8A1
:108560000C20204608F1100101F09EFF204605B0C6
:10857000BDE8F04F01F0B0BF112D7FF458AFC8E750
:10858000C43E002090F85420272A0CD810B403468B
:1085900002F11604013280F8542043F8241001201F
:1085A0005DF8044B70470020704700BF0378132B21
:1085B00006D800EB8302013303700120516070473D
:1085C0000020704778DF70477ADF7047054A03461E
:1085D00092E80300002283E80300C3E90222184660
:1085E000704700BF60B3030008B5FFF7EDFF08B1A7
:1085F000002008BDFFF7E6FFB0FA80F0400908BD93
:10860000F8B500250D4F2E4601E0142D14D0A9B267
:10861000384600F0D5FF013504460028F5D0FFF7B5
:1086200095FC0028F1D02046FFF79AFC012804BFF2
:108630000136F6B2142DEAD13046F8BDC43E002012
:1086400081607047C1607047704700BF8ADF704724
:1086500030B40D4CC4621F25002250248584A0250F
:10866000C0E91122C0E90F22A0F84650A0F8484006
:10867000006230BC8262028680F838204263C264A5
:10868000A0F85020704700BF000180002DE9F04F96
:1086900010468DB016460C4600F030FBC5B2102DCA
:1086A0004FD0B66807220623A16994F81C90019167
:1086B0008DF80D208DF80C30ED080DF10C080DF142
:1086C0000E0A0027B9F1010F0A97CDE90477CDE929
:1086D0000677CDE90877CDF82B700ED998F8000011
:1086E00001994B464A7882420FD00A78D4432344FA
:1086F000013213F0FF031144F4D108F10108C2451F
:10870000E0D100200DB0BDE8F08F11F8024B013C24
:10871000E4B2224604A80FF0AFFC0DF1100B1CB917
:10872000EBE714F0FF04E8D058462A4631460FF034
:1087300095FC641BAB440028F3D101200DB0BDE8CB
:10874000F08F043603220223AEE700BF2DE9F04389
:108750000B888E88103B87B00D4604460D2B2CD815
:10876000DFE803F077072B2B2B2B2B2B2B2B2B84CA
:108770002B2E836AF340DB071FD55648FEF724FEF5
:10878000D8B9A36A94F82C20012505FA06F623EA45
:108790000606A6628AB994F82D3073B11F232462AD
:1087A000A38404F1200104F14400FFF74FFF20B936
:1087B000494800F01DFF84F82C5007B0BDE8F08355
:1087C00090F92E2091F91B309A423ADC90F838301B
:1087D00001F108080BB3DFF80491002602E0D6B2DD
:1087E000B34218D9636BCDF8089003EB061302AAC5
:1087F00059680391D3E902734146204605930497D3
:10880000FFF744FF074602A800F04AFA94F8383010
:10881000721C002FE3D09E4213D094F82F30002B0F
:1088200049D095F82430012B0BD9296A4A78FF2AC0
:1088300030D00A78D0430344013213F0FF031144CF
:10884000F4D104F120010020FFF700FF07B0BDE8DC
:10885000F083CB7B022BB0D1836A012202FA06F6A9
:1088600033430022836280F82C20A6E70B7A012B89
:10887000A3D1002580F82C50174800F0CDFE226CC3
:10888000002A9AD0009502AB2946284602950EF0A0
:108890004FFA92E711F8025B6A1ED2B2022A28BF91
:1088A000022202A80FF0E8FB012DCAD0228EBDF8EB
:1088B00008309A42C5D1E26B002A3FF47EAF012313
:1088C0000093404602AB2421CDF808800EF030FA28
:1088D00073E700BFD43E0020C43E002088B30300ED
:1088E00046DF70477FDF704780DF704785DF704766
:1088F00086DF704738B51C460D46034611462846AC
:108900002246984734B1014600222846BDE8384047
:10891000FFF7EABF38BD00BF10B50C4682B0034672
:108920006946204698476A4620460121FFF7DCFF4A
:1089300002B010BD044A026003210022C0E91622E1
:10894000C0E91822017170473107100301207047F8
:108950000B7803F0FE03042B01D00020704770B5A4
:1089600015468CB00C462022002104A80FF0ACFB69
:1089700028686968AA68EB686D460FC59DF8001005
:108980009DF80F209DF801609DF80E509DF80200A3
:108990008DF80F1023469DF80D108DF800209DF8DE
:1089A00003208DF80E608DF801509DF80C609DF845
:1089B00004508DF80D008DF802109DF80B009DF805
:1089C00005108DF80C209DF80A208DF803608DF8B5
:1089D0000B508DF804008DF805208DF80A109DF8D5
:1089E000061033F8042FADF810209B789DF809206D
:1089F0009DF81D009DF810609DF81F508DF809101E
:108A00008DF806209DF811109DF81E208DF81D3060
:108A10009DF807308DF812008DF81F609DF8080052
:108A20009DF813608DF810508DF81E109DF81C50A5
:108A30009DF814108DF811208DF808309DF81B203A
:108A40009DF81A308DF807008DF81C608DF81350D2
:108A50009DF815608DF81B108DF8142068468DF870
:108A600015309DF819109DF817209DF818309DF8C5
:108A700016508DF818208DF816108DF817308DF8D7
:108A80001A608DF81950FFF72BFF62789DF82F3090
:108A90009DF82E009DF82D108DF821009A428DF83A
:108AA000221004F1010404D0012080F001000CB078
:108AB00070BD6278C3B29A4204F10104F4D16278C5
:108AC000CBB29A42F0D10020EFE700BF08B5137C8B
:108AD000DB0758BF1C32084602F11201FFF706FF00
:108AE000B0FA80F0400908BDF0B58E880C4699B008
:108AF00005463146474800F063FD2388133B07468F
:108B0000072B29D8DFE803F036515D287128042AA5
:108B1000237AABB9637B9B070ED402A83946FFF7D3
:108B200025FA0298BDF80C209DF80E3085F85430D7
:108B3000C5F84E00A5F852203846A91DFFF74CFA9B
:108B40002A6E4AB1247A022300210093084604AB1E
:108B5000CDE904640EF0ECF819B0F0BD6A6E002A9D
:108B6000FAD0012300210093084604AB04960EF0CE
:108B7000DFF8F1E7AB1D002405F12202049305F1B3
:108B80003E03CDE90823CDE90544CDE90A44079425
:108B9000FFF7E6F901280CBF2A4622462146304657
:108BA00004ABFFF79FFE19B0F0BD04A9FFF72AFA46
:108BB000034640B304A93046002312AAFFF798FEEB
:108BC000CAE7AB6D002BC7D0A57B0493042304F147
:108BD000080005F0010500930F4A059604AB062135
:108BE000CDE906050EF0A4F8B6E7EC6D002CB3D085
:108BF000022300210093094A084604ABCDE904464C
:108C00000EF096F8A8E730461A461946FFF770FEB0
:108C1000A2E700BFC43E0020F588020019890200C7
:108C2000A8DF7047704700BF30B5044683B00830F6
:108C300000F074F804F10C010DF106020120FFF7B9
:108C4000EFFF054628B9044B04481C602146FFF796
:108C5000ADFC284603B030BDC03E00204C3F002094
:108C600030B44C68C460D1E90241054A054D026048
:108C7000054A8560C0E90441426030BC704700BFCE
:108C800070B3030088B303000000111183790B70E7
:108C9000C3791370704700BF62DF704763DF7047AE
:108CA000704700BF10B504460DF08AFD204610BD88
:108CB000034A02600022C0E902228271828070476A
:108CC00088B3030010B4054C8180002201210460A8
:108CD000C0E902225DF8044B8171704788B303003C
:108CE000002210B4044C046081605DF8044B827172
:108CF0008280C260704700BF88B303008379012B74
:108D00000AD0826832B9C26822B9012B8CBF802098
:108D10000020704780207047102070472DE9F047F1
:108D2000857982B0002D47D1C7680646002F47D00D
:108D300010200BF0C9F98246384610F0B8F8441EEE
:108D400030B3DFF88490A84604E00134023C1FD41D
:108D5000102D1DD017F804C0BCF12D0F07EB040235
:108D6000F3D099F80030ADF805808DF8043012F892
:108D7000013C8DF804301022002101A88DF805C0B7
:108D800010F0E6F96B1C023C0AF80500DDB2DFD5F5
:108D9000C6F808A0BAF1000F0ED0B11D5046FFF77B
:108DA0007BFFB168321D1020FFF778FFB0FA80F02A
:108DB000400902B0BDE8F087012002B0BDE8F087AD
:108DC000D0F808A0E6E700BF7CB303004BDF704794
:108DD00010DF70477CDF70477DDF704760DF7047D2
:108DE00069DF704761DF704766DF704767DF704794
:108DF000704700BF13200EF03DBA00BF30B5124CD3
:108E0000124D83B0D4F878034FF0FF310BF09AFE87
:108E10000028F7D06DB101A8FFF7D8FF0528F1D0E1
:108E20000028F8D10198831E012BF4D80AF082FAA9
:108E3000F1E701A8FFF7CAFF0528E3D001A8FFF773
:108E4000C5FF0528F5D1DDE7C43E0020353303001A
:108E50002DE9F04F2DED028B4FF4FA7089B00BF035
:108E600033F9B24E00F1080308EE103A054606F554
:108E7000747706F5227AD6F874034FF0FF310BF0C1
:108E800061FE0028F7D04FF4FA730DF11601284661
:108E9000ADF81630FFF7A6FF10B10528F3D1EAE7C9
:108EA000B5F80490B9F1130F00F2398106EB89038C
:108EB000D3F884433CB129462046FFF7C5F89C48C7
:108EC0002946FFF711FE2B88013B1B2B5AD8DFE800
:108ED00013F0160159005900590059005900590062
:108EE00059005900590059005900590059005900BA
:108EF000B4001C005900590059005900590059008C
:108F00005900590059005900A200DFF838824FF08B
:108F1000000B58F8040F30B1FFF718F818B10BF137
:108F2000010B5FFA8BFBB845F3D1BBF1000F06D103
:108F300096F880331BB1594613200EF085F9204670
:108F4000FFF70EF8012800F0EC80F26962B102230D
:108F5000002195F808C00093084606ABCDF818909C
:108F6000CDF81CC00DF0E4FE09F1E00806EB880323
:108F7000586810B103685B68984706EB88080023BF
:108F8000C8F8043029465046FEF798F96948294642
:108F9000FFF7DCFBB6F882334B452B8800F0B4803A
:108FA000102B1ED02CB32046FEF7DAFF012803D188
:108FB0005E482946FFF748FB2046FEF7D1FF02280E
:108FC0001BD05D48FFF72AF900BB5C482946FFF734
:108FD000C1F9D6F8D833002B3FF455AF284698474F
:108FE00051E7EB7B012BDDD1AB88A6F88233002C57
:108FF000D9D14E482946FFF727FB51482946FEF7AD
:1090000003FA4D48FFF70AF90028DED04A482946FE
:10901000FFF706F9D9E7D6F8D423002AB2D0022305
:10902000002195F908C00093084606ABCDF81890CA
:10903000CDF81CC00DF07CFEA4E74FF00008D6F878
:109040007C03CDF800804346424603213D4C0DF0A1
:10905000FFF854F8040F30B1FEF778FF18B108F1AB
:1090600001085FFA88F8BC42F3D196F880336BB1FF
:10907000B8F1000118BF012113200EF0E5F896F8B1
:1090800080331BB1012113200EF0DEF809F1E00856
:1090900006EB8804606820B103685B68984700238A
:1090A0006360EB7B012B0BBF96F8623396F8683355
:1090B00096F8634396F86943039334200DF07EFBE2
:1090C00006EB8808039B009418EE102A04464946D4
:1090D000FEF708FF2046C8F80440FEF741FF0128CC
:1090E00032D0B269002A3FF44DAF01230021009332
:1090F000084606ABCDF818900DF01AFE42E70021A5
:109100004846FFF771FE3DE7102B3FF46AAF112B85
:109110007FF448AF4FF6FF73A6F8823342E7044668
:10912000D1E6F268002A7FF412AF1DE7C43E0020AA
:10913000E43E0020B0410020044200204C3F0020CB
:10914000D43E002044420020B268002A3FF41AAF07
:109150000021009006AB0846CDF818900DF0E8FD10
:1091600010E700BF38B50446FFF730FA04F11000ED
:10917000FEF716F904F12000FFF7DCFB04F188008C
:10918000FFF78AF804F52270FDF7A0FF04F53370AD
:10919000FDF74EFF04F53B70FFF75AFA04F55070E7
:1091A000FFF722F815481649164AC4F864234FF40D
:1091B00040630025C4F8583340F20113C4E9D701D5
:1091C000A4F86833A4F86A5304F561702946502264
:1091D0000EF07AFF01224FF6FF73A4F86C5384F867
:1091E0006E53C4E9DD55C4E9F555C4F87C5384F8E1
:1091F0008023A4F88233204638BD00BF010A17003F
:109200000300010117000300F0B5AE4E80F86C13A7
:109210008DB0336980F86D230446AB49039303A8EE
:10922000FFF7D6FD18B1002528460DB0F0BD099016
:10923000CDE90A00A54A94F85D33049209A90120FA
:109240008DF82430FFF7CCFD0028ECD194F86D3375
:109250000B90CDE90900181E18BF012094F86C533B
:109260008DF82700049A8DF8263009A940208DF842
:109270002550FFF7B5FD0028D5D194F85C1309906F
:10928000034661F30003CDE90A00049A8DF8243007
:1092900009A9A020FFF7A4FD0028C4D1D4F85833B1
:1092A0000A900B90049A099309A9A120FFF798FD51
:1092B0000028B8D194F86C33002B40F0B48094F8B7
:1092C0006D33002B47D00023B4F86473049A0993DC
:1092D000022509A92320CDE90A338DF82450ADF8E1
:1092E0002670FFF77DFD00289DD1CDE9090094F897
:1092F0006D73B4F866330B90049A8DF8245009A965
:1093000020208DF82670ADF82830FFF769FD002881
:1093100089D10990CDE90A0094F86833049A8DF850
:10932000245009A922208DF82630FFF759FD002886
:109330007FF479AFCDE9090094F869330B90049A72
:109340008DF8245009A921208DF82630FFF748FD1B
:1093500000287FF468AF04A8FFF740FD00287FF4E1
:1093600062AFCDE9070040F0010307A902208DF8A4
:109370001C30FFF73BFD00287FF455AF2046FFF778
:1093800033F9054600283FF44EAF04F12000FFF703
:10939000DDFA337D4E498DF80830102202A8FFF720
:1093A00019FD00287FF43FAF94F86D33002B40F097
:1093B00084800322002101200AF028FFC4F87403EE
:1093C00000283FF430AF05AB0326CDE900634149E7
:1093D000414800234FF4A0620BF0DAFE3246002130
:1093E00001200AF013FFC4F8780300283FF41BAFF4
:1093F00006ABCDE90063394939480023C8220BF098
:10940000C7FE384B4FF480021A60374B009300239D
:10941000184601224FF480710CF0C4FEC4F87C039E
:1094200001F066F800E70990CDE90A00B4F85E3370
:10943000049AADF82630012509A923208DF824507F
:10944000FFF7CEFC00287FF4EEAECDE9090094F8DA
:109450006C73B4F860330B90049A8DF8245009A90A
:1094600020208DF82670ADF82830FFF7B9FC0028D1
:109470007FF4D9AE0990CDE90A0094F86233049ADA
:109480008DF8245009A922208DF82630FFF7A8FC7A
:1094900000287FF4C8AECDE9090094F863330B903F
:1094A000049A8DF8245009A921208DF82630FFF761
:1094B00097FC00283FF403AFB5E604F11000FDF778
:1094C0007DFF76E7E8B30300F18D0200003600204F
:1094D000CCB30300E0B30300518E0200E4B30300F9
:1094E000FD8D020000E100E0F58D020000B5084BA3
:1094F00085B01B7D019108468DF80C300FF0D7FC2C
:10950000019982B203A8FFF765FC05B05DF804FB82
:10951000E8B3030000B583B008460DF10601ADF8CD
:109520000620FFF759FC20B99DF8060003B05DF84E
:1095300004FB002003B05DF804FB00BF90F96E034C
:10954000704700BF70B5044682B0D0F87C030D466A
:109550000CF0AAFE4FF47A7206460023A90DA80269
:109560000EF04EFB002302460421D4F87C03009346
:109570000CF06EFE0EB102B070BD0096D4F87C0304
:109580003346324603210CF063FE02B070BD00BFCB
:10959000132906D800EB8101D1F8840308B1FEF746
:1095A000D5BC0020704700BFB0F88203704700BFF1
:1095B00001290CBFB0F85E03B0F86403704700BF28
:1095C00013299ABF00EB8101D1F884030020704772
:1095D00010B5064C0021D4F878030BF027F9D4F825
:1095E00074030021BDE810400BF020B9C43E0020F8
:1095F00090F8803303B9704710B582B0D0F87C433F
:109600000BF0B6FF002302460093204601210CF028
:109610001FFE02B010BD00BFF0B583B000240546A8
:109620002346D0F87C030094224603210CF010FE60
:1096300005F5607605F5747756F8040F20B1FEF74E
:1096400085FC08B10134E4B2BE42F5D195F880330F
:1096500043B1211E18BF0121132003B0BDE8F04023
:109660000DF0F2BD03B0F0BD0148FFF77BBD00BFB8
:10967000C43E0020002070473CDF70473DDF70474C
:1096800011DF704713DF7047B0DF7047B2DF7047FC
:109690002DE9F0419EB0074604A8158814460E46F1
:1096A000FEF77CFABDF81030AB4202D01EB0BDE828
:1096B000F081A379043B022BF8D939465248FFF7D1
:1096C0007FFF4FF000080223394605463046CDE9BA
:1096D0000688CDE908888DF81830FEF7A1FA06A9AA
:1096E00000286AD03846ADF81C80FFF7CDFF247BF8
:1096F000012CDBD1454E41463E2230460EF0E4FCC3
:1097000023460DF10E02424938460824ADF80E40BA
:10971000FFF7BCFF68462946FEF728FC009830603A
:10972000BDF804309DF80620B271B3802846FEF7DC
:1097300011FC002849D1354936484FF6FF740B46D5
:1097400001311B7883EA142383EA131242EA0422CC
:1097500083EA131382EA033282EA431381429CB202
:10976000EDD12A4B2C489C870021FDF7C9FC2846E7
:10977000FEF70CFCFF210020FFF780FFB121002045
:10978000FFF77AFF002891D1FFF77AFF00288DD1EB
:10979000224B4FF0FF324FF01024C3F88020C3F863
:1097A00080216069FFF76EFF00287FF47FAF80F3B0
:1097B0001488606901F082F978E740F2FD133846B9
:1097C000ADF81C30FFF760FF70E70AA92846FEF7E6
:1097D00019FC0028AFD01EAB13E903000B0C30605E
:1097E000B180B37118AC0FCC0D4FC6F807000AACAE
:1097F0007960BA60FB600FCC18360FC694E807009A
:1098000086E8070097E700BFC43E0020807F002065
:10981000B47F0020BC7F00204C41002000E100E02C
:10982000877F002030B585B004460E496846FFF7B3
:1098300057FA69462046FFF713FA25466846FFF7B0
:109840002FFA094B45F8183B08496846FFF748FAD4
:1098500069462846FEF720F96846FFF721FA2046B8
:1098600005B030BD0CB4030054B403002CB40300A5
:1098700030B5B3B00546FFF7D7F918B10446204616
:1098800033B030BD2D491CA8FFF72AFA1CA906A841
:10989000FEF702F91CA8FFF703FA06A8FEF73EF947
:1098A00006A80421FEF73EF906A81421FEF73EF9AA
:1098B00006A8FDF70DFE044698B905F11800182119
:1098C0000190FEF72FF901981721FEF72FF9019863
:1098D0001B490122FEF74CF90198FDF7F9FD0446FA
:1098E00028B106A8FDF7DAFD204633B030BD154992
:1098F00002A8FFF7F5F902A91CA8FEF7CDF802A807
:10990000FFF7CEF91CA8FEF709F902211CA8FEF703
:1099100009F902211CA8FEF70BF91CA8FDF7D8FDD8
:10992000044618B901211CA8FEF75AF91CA8FDF736
:10993000B5FD06A8FDF7B2FDD6E700BF1CB40300D5
:10994000919602003CB40300C16180F83D2070474D
:10995000016380F84220704770B584B0044641F638
:109960000A016846FFF7AEF969462046FFF778F925
:109970006846FFF795F920460E4B40F8183B242225
:1099800000210EF0A1FB0C4E0C480D4AE0620023B2
:109990002364E36384F84430102505211323204613
:1099A000E66184F83D5084F84110226384F8423027
:1099B00004B070BD84B40300CCB3030060B40300F2
:1099C00068B403002DE9F0479AB00646FFF72CF97A
:1099D0008046002846D1336A002B4ED0736A002B94
:1099E00056D0C6F5275909F1270906F1140406F1E6
:1099F000380706F13C0554F8043F04A873B3FEF79A
:109A00001BF82268B36B09EB05019A4289B26846DC
:109A100008BF42F65021FFF755F9694604A8FEF742
:109A200071F86846FFF73CF904A8FEF777F80221C1
:109A300004A8FEF777F8297804A8FEF779F804A8B7
:109A4000FDF746FD824604A8BAF1000F0ED12A7830
:109A50002168FEF7A9F804A8FDF720FDBC4205F136
:109A60000105C8D140461AB0BDE8F087FDF716FDE4
:109A7000D04640461AB0BDE8F0870DF0FFFA044624
:109A80000FF015FA736A346286F83E00002BA8D1F5
:109A90000DF0B4FA04460FF00AFA746286F83F003B
:109AA0009FE700BFD0F8D830988980B2704700BFD8
:109AB00070B582B0064608461C460192FEF72CF8A7
:109AC000019905462246D0F8D8000DF0F1F98442FC
:109AD00006D9D5F8F0301BB1211A89B23046984723
:109AE000D5F8E83023B1304602B0BDE870401847E1
:109AF00002B070BD08B592B2D0F8D8000DF026FAC9
:109B000008BD00BF00B583B0D0F8D8000DF1070242
:109B100000210DF057FA20B19DF8070003B05DF861
:109B200004FB4FF0FF30F9E7D0F8D8000DF0AEB9E4
:109B3000D0F8C030988980B2704700BFD0F8C0001C
:109B40000DF0A4B910B501680C4A8C69944282B03A
:109B50000BD1D0F8D80001220DF107010DF0F6F974
:109B600040B19DF8070002B010BD01220DF10701C0
:109B7000A047F5E74FF0FF30F5E700BFF59A020088
:109B800000B583B0D0F8C0000DF1070200210DF040
:109B900019FA20B19DF8070003B05DF804FB4FF0FF
:109BA000FF30F9E710B550F8181C0D4A8C69944243
:109BB00082B00CD0183801220DF10701A04718B16E
:109BC0009DF8070002B010BD4FF0FF30FAE7012208
:109BD0000DF10701D0F8C0000DF0B8F9EFE700BFB4
:109BE000F59A02002DE9F04F50F8183C83B0044676
:109BF0003F48D3F828800F461646FFF7D5FC3D4B6B
:109C00009845054609D0A4F1180033463A4629463E
:109C1000C44603B0BDE8F04F604701463448FFF743
:109C2000CFFC8346002850D004F11009484629464D
:109C3000FDF7F6FF002848D094F8CC30002B3CD03C
:109C4000D4F8C800C8B31FFA86FA524639460DF058
:109C50002FF9D4F8C8309B89804658461FFA83FBF9
:109C6000FEF780F90338834525DB21482946FFF7B5
:109C7000A7FC50B3FEF776F9033882B21046019282
:109C80000AF022FA834600B3019AD4F8C800594674
:109C90000DF05CF90346F0B958460AF02FFA464534
:109CA00009D9AAEB08039BB207EB080229464846EC
:109CB000FDF7E6FF58B1B04609E03A462946484666
:109CC000B3B2FDF7DDFF0028F5D14FF000084046A4
:109CD00003B0BDE8F08F5A4629464846FDF7D0FF4D
:109CE000044658460AF00AFA002CD8D1EDE700BF26
:109CF000C43E002015A102002DE9F04150F8183CA7
:109D000084B004463B489E6A8DF80F10FFF74CFC68
:109D1000394B9E42054609D0A4F11800294601237B
:109D20000DF10F02B04704B0BDE8F08101463148A3
:109D3000FFF746FC064650B304F1100738462946A3
:109D4000FDF76EFF18B394F8CC30002B49D0D4F84F
:109D5000C800002845D00DF10F0101220DF0A8F830
:109D6000D4F8C8309B89804630469EB2FEF7FAF898
:109D7000033886420DDA0120D5E7324629463846B7
:109D8000FDF77EFF044630460AF0B8F9F4B900202A
:109D9000C9E718482946FFF713FC0028F7D0FEF75B
:109DA000E1F8C21E92B2104601920AF08DF9064601
:109DB0000028ECD0019AD4F8C80031460DF0C6F85E
:109DC00003460028D9D130460AF098F9B8F1000FBF
:109DD000D1D10DF10F02294638460123FDF750FF7E
:109DE000A1E72946384601230DF10F02FDF748FF90
:109DF00099E700BFC43E002015A102002DE9F04103
:109E000005683B4BAD6A82B09D428DF8072065D155
:109E1000044638480E46FFF7D3FB054600284FD0CE
:109E200004F1280738463146FDF7FAFE002847D0EE
:109E300094F8E430002B47D0D4F8E000002843D059
:109E40000DF1070101220DF033F8D4F8E0309B89C1
:109E5000804628469DB2FEF785F8C31E9D4244DB2E
:109E600024483146FFF7ACFB50B3FEF77BF80338CC
:109E700082B2104600920AF027F9054600B3009A14
:109E8000D4F8E00029460DF061F868B928460AF0D8
:109E900035F9B8F1000F28D10DF1070231463846E7
:109EA0000123FDF7EDFE0CE003462A463146384615
:109EB000FDF7E6FE044628460AF020F9002CE8D11A
:109EC000002002B0BDE8F0813146384601230DF193
:109ED0000702FDF7D5FE02B0BDE8F08101230DF1C8
:109EE0000702A84702B0BDE8F0810120E9E700BF02
:109EF00015A10200C43E00202DE9F04F036883B095
:109F0000044641489E6A88461746FFF74DFB3F4B83
:109F10009E42054661D101463B48FFF751FB06468C
:109F2000002855D004F1280948462946FDF778FE57
:109F300000284DD094F8E430002B41D0D4F8E00054
:109F400000283DD01FFA87FA524641460CF0B0FF78
:109F5000D4F8E02003463046B2F80CB01E46FEF7B7
:109F600001F81FFA8BFB0338834524DB264829467A
:109F7000FFF726FB60B3FDF7F5FF033882B210460A
:109F800001920AF0A1F8834610B3019AD4F8E000D8
:109F900059460CF0DBFF48BB58460AF0AFF8B74211
:109FA00009D9AAEB06039BB208EB060229464846EC
:109FB000FDF766FE68B13E46304603B0BDE8F08F5F
:109FC000424629464846BBB2FDF75AFE0028F2D168
:109FD0000026304603B0BDE8F08F01463B464246BE
:109FE0002046B44603B0BDE8F04F604703465A46EA
:109FF00029464846FDF744FE044658460AF07EF8D6
:10A00000002CCCD1E4E700BFC43E002015A1020023
:10A010002DE9F041036882B004463C489E6A8DF801
:10A020000710FFF7C1FA3A4B9E420546014663D13D
:10A030003648FFF7C5FA064600284FD004F1280736
:10A0400038462946FDF7ECFD002847D094F8E43067
:10A05000002B47D0D4F8E000002843D00DF10701D1
:10A0600001220CF025FFD4F8E0309B898046304671
:10A070009EB2FDF777FFC31E9E4245DB234829466B
:10A08000FFF79EFA50B3FDF76DFF033882B210461A
:10A0900000920AF019F8064600B3009AD4F8E000DE
:10A0A00031460CF053FF68B930460AF027F8B8F192
:10A0B000000F29D10DF10702294638460123FDF78B
:10A0C000DFFD0CE00346324629463846FDF7D8FD51
:10A0D000044630460AF012F8002CE8D1002002B005
:10A0E000BDE8F0812946384601230DF10702FDF74E
:10A0F000C7FD02B0BDE8F081204601230DF1070243
:10A10000B04702B0BDE8F0810120E8E7C43E00207E
:10A1100015A102002DE9F04F044683B0384890465F
:10A120001F460E46FFF74CFA002856D004F12809C6
:10A13000054631464846FDF773FD00284DD094F89A
:10A14000E430002B41D0D4F8E00000283DD01FFAC5
:10A1500087FA524641460CF0ABFED4F8E0200346A5
:10A160002846B2F80CB01D46FDF7FCFE1FFA8BFB2B
:10A170000338834524DB22483146FFF721FA60B3D8
:10A18000FDF7F0FE033882B21046019209F09CFF01
:10A19000834610B3019AD4F8E00059460CF0D6FE7D
:10A1A00000BB584609F0AAFFBD4209D2AAEB05033D
:10A1B0009BB208EB050231464846FDF761FD68B1E8
:10A1C0003D46284603B0BDE8F08F4246314648463A
:10A1D000BBB2FDF755FD0028F2D10025284603B09B
:10A1E000BDE8F08F03465A4631464846FDF748FD24
:10A1F0000446584609F082FF002CD5D1EDE700BF98
:10A20000C43E002070B584B004460E4668461E4920
:10A21000FEF766FD69462046FEF722FD6846FEF71A
:10A220003FFD1A4B1A4903F10802002548334FF449
:10A230007A70C4E90635226020626846FEF750FD58
:10A24000694604F12800FDF727FC6846FEF728FD63
:10A2500010496846FEF744FD694604F18000FDF7A9
:10A260001BFC6846FEF71CFD2046C4E93A55C4F8BD
:10A27000D850A4F8DC60C4F8F050C4F8E05084F87A
:10A28000E45004B070BD00BFB8B40300C8B403000C
:10A29000A8B4030098B4030010B50D4B0446D0F8E1
:10A2A000E00023604033A36110B103685B68984706
:10A2B00004F18000FDF7F2F804F12800FDF7EEF854
:10A2C0002046044B40F8083BFEF7EAFC204610BD50
:10A2D000D0B4030070B3030010B50F4B0446D0F8A0
:10A2E000E00023604033A36110B103685B689847C6
:10A2F00004F18000FDF7D2F804F12800FDF7CEF854
:10A300002046064B40F8083BFEF7CAFC20460CF0FE
:10A3100057FA204610BD00BFD0B4030070B303004D
:10A3200070B5044682B018200CF048FA00220546A9
:10A3300001210CF08BFD2846B4F8DC10C4F8D8508D
:10A340000CF096FD2046FEF76FFC054610B128463E
:10A3500002B070BD01211E48FFF72AF904F128065A
:10A3600003461021304601961E46FDF7DBFB2A46C8
:10A3700001981121FDF7EEFB01983146FDF7D6FB60
:10A3800001981449FDF708FC0198FDF7A1F805466E
:10A390000028DCD104F180000C210190FDF7C2FB04
:10A3A00001980D490122FDF7DBFB11220198294696
:10A3B000FDF7D0FB01983146FDF7B8FB019807493E
:10A3C000FDF7EAFB019802B0BDE87040FDF780B8E8
:10A3D000C43E002090B40300B19A020094B403007C
:10A3E000002201214270C0E901220170C2818281F4
:10A3F000704700BF10B50446017001B110BD0A20BE
:10A4000009F046FF606010BD037810B5044643B103
:10A41000002301226370C4E90133E381A381227028
:10A4200010BD40680AF016FDF2E700BF002381600E
:10A430008281C381704700BF037870B504460D4622
:10A44000B3B94668012363704FF47A720023A802FF
:10A45000A90D0DF0D5FB014630460AF073FB98B903
:10A46000237800264FF0FF356670A3B9284670BDEB
:10A4700003220021012009F0C9FE06466060002881
:10A48000E0D14FF0FF35F1E7E58923780026ADB242
:10A490006670002BEAD060680AF0DCFC6660284633
:10A4A00070BD00BF4078704738B50446808982424D
:10A4B00028BF0246154619B1A0680DF0DDFDA08940
:10A4C000E389A26815FA83F3401B9BB22A44A0815A
:10A4D000E381A260284638BD406820B100231A46B7
:10A4E000194609F007BF7047B1DF7047B2DF704708
:10A4F00008B50F4808F0C6FD0E490D4803F0A6F850
:10A5000028B10D490A4803F0A1F850B108BD094926
:10A51000074803F0B7F80849054803F097F8002802
:10A52000F4D1BDE808400449014803F0ABB800BFCE
:10A53000F44300202CB5030040B5030070B586B08D
:10A540000E4603230021054614460093044A049650
:10A55000084603AB039505940CF0EAFB06B070BD0A
:10A5600029A8020070B586B00323144606460D469E
:10A570000093104603AB044A05940721CDE9036517
:10A580000CF0D6FB06B070BD59A9020030B50A46E2
:10A5900091B089795379039111790293D378094D58
:10A5A000094C019100939378527801280CBF2946F9
:10A5B000214604A80EF026FC04A9044803F0BAF8CA
:10A5C00011B030BD54B5030084B50300F44300203E
:10A5D0002DE9F043D1B00B78032B04AF0D460446B0
:10A5E000904668D95A08022A5ED14F4A4F49504BCB
:10A5F000DFF84891012818BF11460022381D03F0EA
:10A6000071FA4B4907F1680003F0A2F907F1CC0693
:10A6100011E00246414607F1680003F08BFA08F1A9
:10A62000380229464846FEF793F9044678BB07F1FD
:10A63000680003F0F5FA0022391D304603F022FBD2
:10A6400007F1D0000DC8D7F8DC10D7F8E4407B67DD
:10A65000D7F8E83097F8E0C0F8663A67B967412262
:10A6600007F1EC0107F18800C7E9204387F87CC0B7
:10A670000DF002FD07F1680003F0FEFA044607F151
:10A68000680044B103F004F95028D0D1C1E707F1C4
:10A69000680003F0C5FA381D03F0C2FA204607F53A
:10A6A0009A77BD46BDE8F0830024204607F59A77E7
:10A6B000BD46BDE8F083E9468CB08979AB786A780D
:10A6C000039169790291297901911A4E1A49E87822
:10A6D000009004AD012C08BF3146284607F1CC0696
:10A6E0000EF090FB1249304603F032F9294630460D
:10A6F000002203F0DBF9044650B90024304603F091
:10A700008FFA2046CD4607F59A77BD46BDE8F0831F
:10A71000304603F0BDF8021EEFDD92B241463046EE
:10A7200003F008FAEAE700BF40B503002CB50300C8
:10A73000F443002054B5030084B50300E43E002038
:10A74000F0B5ADB095799378344E144652780395B0
:10A750006579029594F804C0CDF804C0304DE478D2
:10A76000009404AF0C4601280CBF3146294607F17E
:10A770000C000EF047FB2B4B07F10C0107F13C00DE
:10A78000002203F0AFF907F13C0003F075FA40B97D
:10A79000002407F13C0003F043FA2046A437BD46ED
:10A7A000F0BD07F13C0003F073F8051E08DD07F16A
:10A7B0003C0003F0FDF9291807F13C0003F0DAF939
:10A7C00007F13C0003F064F8051E08DD07F13C00CA
:10A7D00003F0EEF9291807F13C0003F0CBF907F17B
:10A7E0003C0003F055F80028D2DDC31D23F0070319
:10A7F0006D46ADEB030D82B204A907F13C00C7E939
:10A80000001203F097F92046D7E900120323FFF75F
:10A810006BFEB0FA80F46409AD46BAE754B50300A4
:10A8200084B50300F4430020F0B5B5B092F84E5063
:10A8300092F84A30434E144692F84920039594F812
:10A840004D50029594F84C50019594F84B5000955A
:10A850000D463D4904AF012818BF314607F12C00D1
:10A860000EF0D0FA394807F12C0102F0EFFE6E46E7
:10A8700000284AD1354B07F12C0107F15C00012279
:10A8800003F030F907F15C0003F0F6F918B9C437AA
:10A89000B546BD46F0BD502107F15C0003F026F837
:10A8A0005022214607F15C0002F05EFF002329469A
:10A8B00027487B61C7E90333C7E90633C7E9083393
:10A8C000BB62FEF77DFE07F10C012022FDF76CFC58
:10A8D0003B7B03B307F10C000EF0E9FA013082B2C2
:10A8E000C1B207F15C007A6003F000F87A6807F102
:10A8F0000C0107F15C0002F037FF07F15C0003F088
:10A900008FF9C437B546BD46F0BD07F12C010F489D
:10A9100002F010FFAEE794F8491094F84D3094F827
:10A920004E20039194F84A10029194F84B10019133
:10A9300094F84C10009107F10C0006490EF062FAF1
:10A94000C8E700BF84B5030054B50300F4430020FA
:10A95000C43E0020B4B503002DE9F043ADB00C4671
:10A9600004AF0021032306461546204607F10A02DC
:10A970007981FFF7BBFD7B89E84623B9A437C5463B
:10A98000BD46BDE8F0830733DB08A8EBC3039D4653
:10A990000DF11009204607F10A0249460323FFF78B
:10A9A000A5FD04460028E9D1A979AB786A7803911E
:10A9B00069790291297901913D483E49ED780095E8
:10A9C000012E08BF014607F10C000EF01BFA3A4BAE
:10A9D00007F10C0107F13C00012203F083F807F1B5
:10A9E0003C0003F049F90028C8D0214607F13C009B
:10A9F00003F0C0F807F13C0002F04AFF041E08DD36
:10AA000007F13C0003F0D4F8211807F13C0003F0F3
:10AA1000B1F807F13C0002F03BFF041E08DD07F12E
:10AA20003C0003F0C5F8211807F13C0003F0A2F840
:10AA300007F13C0002F02CFF7C8980B2A04213D0C9
:10AA4000E1B207F13C0002F051FF2246494607F10E
:10AA50003C0002F089FE07F13C0003F0E1F8A43766
:10AA6000C546BD46BDE8F083E31D6D46DB08A5EB9A
:10AA7000C3039D4604A9224607F13C00796003F018
:10AA800059F879687A8948460DF0E8FA08B9AD4670
:10AA9000E1E707F13C0003F0A7F87B89DB431918D5
:10AAA00007F13C0003F066F8AD467C89C8E700BFBB
:10AAB00054B5030084B50300F4430020F0B403460A
:10AAC000186880F308885868FF2464B2EFF305859E
:10AAD000002D01D1A64600472546064621273FBA4C
:10AAE000F0B40024002500260027F0B4F92040B27D
:10AAF000004700BFF0BC704730B5044683B00D4638
:10AB0000807A00210CF0A0FB607A00210CF09CFB05
:10AB1000207A01210CF098FB207A00210CF094FBA4
:10AB20000E4B00934FF48073ADF8043002AB13E981
:10AB30000600206900F0B4FE2946206900F0FEFE00
:10AB4000206900F0F5FE206900F0A4FEA07A012142
:10AB500003B0BDE830400CF077BB00BF00127A00B4
:10AB600030B5044683B00D46807A00210CF06CFBB2
:10AB7000607A01210CF068FB207A01210CF064FB63
:10AB8000207A00210CF060FB0E4B00934FF4807391
:10AB9000ADF8043002AB13E90600206900F080FE36
:10ABA0002946206900F0CAFE206900F0C1FE206934
:10ABB00000F070FEA07A012103B0BDE830400CF037
:10ABC00043BB00BF00127A0070B400259DF80C60F2
:10ABD00005732C4663F3070466F30F2461F31744EF
:10ABE00062F31F640349049A0160C0E901540261E1
:10ABF00070BC704700C5030010B500210446C07A40
:10AC00000CF022FB012009F051FAE07A01210CF04E
:10AC10001BFB8A4BC02043F001039847237B03B101
:10AC200010BDAE212046FFF767FF237B002BF7D135
:10AC3000D5212046FFF760FF237B002BF0D1C221F6
:10AC40002046FFF759FF237B002BE9D1A82120469E
:10AC5000FFF752FF237B002BE2D11F212046FFF795
:10AC60004BFF237B002BDBD1D3212046FFF744FF92
:10AC7000237B002BD4D160212046FFF73DFF237BAF
:10AC8000002BCDD1A2212046FFF736FF217B0029E2
:10AC9000C6D12046FFF730FF237B002BC0D1A02177
:10ACA0002046FFF729FF237B002BB9D1C021204686
:10ACB000FFF722FF237B002BB2D1DA212046FFF7DA
:10ACC0001BFF237B002BABD112212046FFF714FF83
:10ACD000237B002BA4D181212046FFF70DFF237B8E
:10ACE000002B9DD15A212046FFF706FF237B002B26
:10ACF00096D1D9212046FFF7FFFE237B002B8FD171
:10AD000022212046FFF7F8FE237B002B88D1DB2190
:10AD10002046FFF7F1FE237B002B81D13021204616
:10AD2000FFF7EAFE237B002B7FF47AAFAD212046AC
:10AD3000FFF7E2FE237B002B7FF472AF1021204649
:10AD4000FFF7DAFE237B002B7FF46AAF2021204639
:10AD5000FFF7D2FE217B00297FF462AF2046FFF788
:10AD6000CBFE237B002B7FF45BAF8D212046FFF7CA
:10AD7000C3FE237B002B7FF453AF01212046FFF756
:10AD8000BBFE237B002B7FF44BAFAC212046FFF7AB
:10AD9000B3FE217B00297FF443AF2046FFF7ACFED2
:10ADA000237B002B7FF43CAFA4212046FFF7A4FEB9
:10ADB000237B002B7FF434AFA6212046FFF79CFEB7
:10ADC000237B002B7FF42CAFAF212046FFF794FEAE
:10ADD000237B002B7FF424AF21212046FFF78CFE3C
:10ADE000217B00297FF41CAF2046FFF785FEA18A56
:10ADF000237B49080139C9B2002B7FF411AF2046EB
:10AE0000FFF77AFE237B002B7FF40AAF2221204636
:10AE1000FFF772FE217B00297FF402AF2046FFF787
:10AE20006BFEA17D237B0139C9B2002B7FF4F8AE04
:10AE30002046BDE81040FFF75FBE00BF10C503000D
:10AE400038B5057B81820446C282F5B11F4B0021D3
:10AE50001A6821771378A3765378E376937863772B
:10AE6000D378A37713795279E17703EB830303EB6C
:10AE7000830302EB8303012284F82010228363847E
:10AE80002046BDE83840FFF7B7BE807A01210CF0BC
:10AE900043F9A07A01210CF0D7F9E07A01210CF0F6
:10AEA0003BF9E07A29460CF0CFF9207A01210CF029
:10AEB00033F9207A29460CF0C7F9607A01210CF0A9
:10AEC0002BF9607A29460CF0BFF9BFE7CC38002097
:10AED00038B5037B03B138BD04460D468121FFF729
:10AEE0000BFE237B002BF6D129462046BDE83840D7
:10AEF000FFF702BE2DE9F041037B0546002B52D03F
:10AF00003F4E06F52077A6F1140819E014F0080268
:10AF10000EBFF021FF210F2214F0040F08BF1146CD
:10AF2000002B39D014F002011ABFFF220F21F022AA
:10AF300014F0010F18BF114623B3464527D02B7BD1
:10AF400018F8014FE2090EBFF021FF210F2214F083
:10AF5000400F08BF114683B114F020020EBFF0214C
:10AF6000FF210F2214F0100F08BF1146002BCDD186
:10AF70002846FFF7F5FD2B7BC8E72846FFF7F0FDD5
:10AF80002B7BE9E72846FFF7EBFD4645D7D1143682
:10AF9000B74206D02B7BB6E72846FFF7E1FD2B7BB7
:10AFA000C0E7BDE8F0812121FFF7A6FD2B7B002B38
:10AFB000A6D119462846FFF79FFDA98A2B7B490891
:10AFC0000139C9B2002B9BD12846FFF795FD2B7B99
:10AFD000002B95D122212846FFF78EFD2B7B002BDD
:10AFE0008ED119462846FFF787FDA97D2B7B0139B5
:10AFF000C9B2002B84D12846FFF77EFD2B7B7FE76B
:10B000005F3600202DE9F04F85B0A3EB010C9DF8D1
:10B0100038509DF83C409DF840800394AF1A002FB3
:10B02000B8BF7F42BCF1000FB8BFCCF1000C674540
:10B0300040F392809E4689460C461E4611462B469A
:10B040004A467546E646994272D85C1AAA4234BF0F
:10B050000125FF2599425FFA84FA5FFA8EF6029580
:10B06000C4F3460451D2DFF800E101932CE0AA4278
:10B070001BDAB0F81690494517DAED08C2F3C70994
:10B08000B8F1010F01FB059542D0039B1EF805B0F6
:10B090006FEA0209012B09F007092FD0012303FAF7
:10B0A00009F92BEA09090EF80590A51B6CB2002CD2
:10B0B000EDB204DA029C55442244D2B26CB2019B38
:10B0C0000131C9B2994220D26745858ACFDCA942B5
:10B0D000EBDAB0F816904A45E7DAED08C1F3C70994
:10B0E000B8F1010F02FB05951FD0039B1EF805B0B8
:10B0F0006FEA0109012B09F00709CFD103FA09F919
:10B1000049EA0B090EF80590CFE705B0BDE8F08FCE
:10B110006FEA02091EF805B009F0070908FA09F9F3
:10B1200089EA0B090EF80590BFE76FEA0109F1E71C
:10B13000A61B002EA1EB0304B8BF7642AA425FFA19
:10B1400084FA8E46F6B2C4F346042A46194607D955
:10B1500001230293734686E714462E46BE4672E7E5
:10B16000FF23029373467EE74C36002070B584B00F
:10B17000467E047E9DF820500095CDE90146FFF7FC
:10B1800041FF04B070BD00BF2DE9F04786B00B440D
:10B1900090F8189090F819A09DF838400092DDB210
:10B1A0002B46CDF80490CDF808A016468846FFF748
:10B1B00029FF621E3244D2B2CDE9019A2B46009299
:10B1C0004146023CFFF71EFF14F0FF0413D0721C2F
:10B1D000D2B21444E4B2434641468DE810060592CB
:10B1E000FFF710FF6B1EDBB2CDE9019A059A0094C0
:10B1F0001946FFF707FF06B0BDE8F0872DE9F04FCD
:10B200005C1887B0A142CDE903429DF840309DF81B
:10B2100044E09DF848A03BDA1344DCB2A242214E40
:10B2200005948BBFA34693469046A046DDE90432C1
:10B230009342CDB228D0C34526D2EC4304F0070494
:10B240000123A3406FEA03090EFA04F302935A465E
:10B250004FEAD50C0194848AE308A54202FB03C39C
:10B260000EDAC48AA2420BDABAF1010FF45C12D0F2
:10B27000BEF1010F0ABF029F09EA04043C43F454E3
:10B280000132D3B29845E6D8039B01319942CDD122
:10B2900007B0BDE8F08F2746019C0AFA04F47C4011
:10B2A000F454EDE74C3600202DE9F04F447F89B08F
:10B2B0009C429DF848509DF84CA00195CDE9022193
:10B2C00000F2B580827F22449A4240F3B080C27E71
:10B2D0001B1BDBB2072A049340F2B480D308012B76
:10B2E000079300F0AF80049E827EDFF88C921D46AB
:10B2F000438CB3FBF2F115FB03F3B6FBF1F401FB56
:10B30000146113FB04F311FB02F1029C0B449BB28A
:10B3100004EBC50605930023F6B20293002A00F061
:10B320001A81A6F1080306934FF0000EDBB20493D6
:10B330007346904C027F418C54F82220059C224495
:10B340001344029A02FB0133039A02EB0E059A7929
:10B350005110530001F0550103F0AA030B43EFB263
:10B360009A10990002F0330221F03303FC43134397
:10B3700004F007040121C3F3031201FA04F442EAC2
:10B38000031364B2DAB2C5F3C405049B00946FEAF8
:10B3900004081FFA87FC1AE08C4512D2B0F816B0E8
:10B3A0005B450EDAC908BAF1010F03FB015141D028
:10B3B000019C19F801B0012C1DD008EA0B0B09F80B
:10B3C00001B00133DBB29E424FEA52021ED0D407D5
:10B3D000818AE1D48F42F4DAB0F816B05B45F0DA36
:10B3E000C908BAF1010F03FB015123D0019C19F8E0
:10B3F00001B0002CE1D1009C0133DBB244EA0B0B1D
:10B400009E4209F801B04FEA5202E0D1827E0EF16D
:10B41000010E5FFA8EF39A428BD8029B07999DF832
:10B42000186001330293DBB299423FF677AF09B05F
:10B43000BDE8F08F19F801B0009C84EA0B0B09F805
:10B4400001B0BEE7029BDFF830C103F108064FF000
:10B45000000B837E5C46A342F6B272D04549027F60
:10B4600051F82220049901FB032323449B795A10AD
:10B470005B0002F0550203F0AA0313439A109B00ED
:10B4800002F0330223F033031343C3F3031242EAFF
:10B490000313DAB2039B1C44E7B2FD43012305F01A
:10B4A000070503FA05F56DB2029B0095C4F3C404C9
:10B4B0006FEA05081FFA87FE1AE08E4512D2B0F82F
:10B4C00016904B450EDAC908BAF1010F03FB014192
:10B4D00039D0019D1CF80190012D1DD008EA090901
:10B4E0000CF801900133DBB29E424FEA52021ED0AB
:10B4F000D507818AE1D48F42F4DAB0F816904B4533
:10B50000F0DAC908BAF1010F03FB01411BD0019D1C
:10B510001CF80190002DE1D1009D0133DBB245EA1A
:10B5200009099E420CF801904FEA5202E0D1837E55
:10B530000BF1010B5FFA8BF4A342FFF478AFA34247
:10B540008CD10022A6E71CF80190009D85EA09092C
:10B550000CF80190C6E7029B079901330293DBB216
:10B56000083E8B42F6B2BFF462AFA6F10803069321
:10B5700053E700BFCC3800204C36002010B50A2914
:10B5800082B0044618D00D2902D1012002B010BDAE
:10B59000437E027E0092019390F820200B46C17FEB
:10B5A000FFF782FE817EC37F828A0B440133DBB2C8
:10B5B000521A9342C377E8DD94F82030E17E0022EE
:10B5C0000B44012084F82030E27702B010BD00BFA8
:10B5D0002DE9F04F85B0878A9DF838909DF83C4062
:10B5E000019102EB0905BD4263DCC58A1919A94224
:10B5F0005FDC09F10705ED080295002C59D0B9F17F
:10B60000000F56D0C9B2DFF8C8A003914FF0000870
:10B610004FF0800B00252C4611E0019C14F80CC063
:10B62000009C1CEA040F47D01AF8061021EA07070D
:10B630000AF806700135ECB2A1452FD9878A511955
:10B64000C9B24FEAD70CCE08B94203FB0C66F1DA57
:10B65000C78A08EBD40C04F007044BFA04F4BB428D
:10B660001FFA8CFC0094E5DA90F819E0CF4307F05C
:10B6700007070124BEF1010F04FA07F7CDD1C94332
:10B680001AF8064001F007010EFA01FE01358EEAB4
:10B69000040EECB2A1450AF806E0CFD802990133B6
:10B6A00088440399DBB299421FFA88F801D0878A4F
:10B6B000B0E705B0BDE8F08FC9431AF8064001F0C5
:10B6C0000701012707FA01F121430AF80610B1E743
:10B6D0004C3600200129F8B505460AD9C38A828A6A
:10B6E000304802FB03F2D210BDE8F84000210CF014
:10B6F000EBBC0F46017BF1B1EC8A6CB1AA8A002643
:10B70000530833B1297B002449B10134A342FBDC47
:10B71000EC8A0136B442F4DC002F38D0F8BD28465C
:10B72000FFF71EFAAA8A0134B4EB520F4FEA520314
:10B73000EEDA297BE8E72121FFF7DEF9297B0029F2
:10B74000DAD12846FFF7D8F9AB8A297B5B08013BA1
:10B75000DBB20029D0D119462846FFF7CDF9297B65
:10B760000029C9D122212846FFF7C6F9297B0029E3
:10B77000C2D12846FFF7C0F9AB7D297B013BDBB284
:10B780000029B9D119462846FFF7B6F9B4E7AA8AC5
:10B79000044804FB02F23946D210BDE8F8400CF030
:10B7A00093BC00BF4C360020C17780F82020704742
:10B7B00001767047032916D80C4B017753F82120E6
:10B7C000137883765378C37693784377D3788377E7
:10B7D0001379527903EB830303EB830302EB8303B7
:10B7E0004384012070470020704700BFCC38002000
:10B7F000417C01B170478368827B70B40125457438
:10B80000224CC3F80825457BC3F80C55627925798D
:10B81000067BC3F81065013A05F1FF3618BF012217
:10B82000022EC3F80015027498BF42EA450221684F
:10B83000C573C3F85425164AB2FBF1F2B2F5007F86
:10B840000ED2FF2A15D87F2A16D83F2A17D81F2ACA
:10B8500018D80F2A8CBF4FF080414FF0004101E013
:10B860004FF000710122C3F8241570BCC3F8002505
:10B8700070474FF08061F5E74FF00061F2E74FF05D
:10B880008051EFE74FF00051ECE700BFB4420020D9
:10B890000090D00382680023C2F8003543747047DB
:10B8A00030B482B002AB03E906009DF804109DF8A5
:10B8B00005308268013B01F1FF3418BF01230025E8
:10B8C000022CC2F80055037498BF43EA4103C173C8
:10B8D0000099C2F85435154BB3FBF1F3B3F5007F73
:10B8E00004D2FF2B0CD94FF0806101E04FF00071C2
:10B8F0000123C2F82415C2F8003502B030BC7047ED
:10B900007F2B06D83F2B07D81F2B08D94FF00051AB
:10B91000EEE74FF00061EBE74FF08051E8E70F2BC7
:10B920008CBF4FF080414FF00041E1E70090D00321
:10B9300083680022C3F80025704700BF8268C2F800
:10B940001C15D2F80831002BFBD0D2F818050023C3
:10B95000C0B2C2F8083170470A4A0B4B0B4970B4A9
:10B96000D2E90C05966B0A4C987300224FF4807054
:10B970001E739C605D73074CDA731A8288800C60BA
:10B9800070BC704770C80300A0420020B442002081
:10B990000030024000093D00704700BF203007F032
:10B9A000D5BE00BF38B5437F0BB9002038BD00F1CC
:10B9B000680420460D4607F0D7FE0028F5D1204642
:10B9C000294607F0A3FE012038BD00BF203007F054
:10B9D000AFBE00BF203007F0BFBE00BF2DE9F04F63
:10B9E00083B0019272B34C1E174F0546C1F1010698
:10B9F00004EB020800F1680A2B681B68BB4206EBE7
:10BA0000040B14F8019F17D16B7F50461BB95846A1
:10BA100003B0BDE8F08F07F0A7FE03464946504645
:10BA2000002BF4D107F072FE4445E5D1DDF804B0F7
:10BA3000584603B0BDE8F08F49462846984700288D
:10BA4000F2D1E4E79346E2E7A5B9020030B4837E81
:10BA500002694FF0A04403F5E07340F20C65012148
:10BA6000C17644F82350437E03F5E07344F8235035
:10BA70004FF0CC740623C2F82445C2F80035837E0B
:10BA8000C2F8083590F91830447EC2F80C45002BF6
:10BA900019DB104C5A0903F01F0560322344A940FA
:10BAA000602544F8221083F8005390F91830002BD9
:10BAB00007DB084903F01F0001225B09824041F8BF
:10BAC000232030BC7047044A03F00F031A4460235C
:10BAD0001376EAE700E100E0FCEC00E0C37E9BB1F6
